{
  "_format": "hh-sol-artifact-1",
  "contractName": "NFTRent",
  "sourceName": "contracts/NFTRent.sol",
  "abi": [
    {
      "inputs": [
        {
          "internalType": "string",
          "name": "_nftHash",
          "type": "string"
        },
        {
          "internalType": "address",
          "name": "_nftAddress",
          "type": "address"
        },
        {
          "internalType": "string",
          "name": "_nftId",
          "type": "string"
        },
        {
          "internalType": "string",
          "name": "_nftName",
          "type": "string"
        },
        {
          "internalType": "string",
          "name": "_tokenUri",
          "type": "string"
        },
        {
          "internalType": "uint256",
          "name": "_flowrate",
          "type": "uint256"
        },
        {
          "internalType": "uint16",
          "name": "_typeOfIncrease",
          "type": "uint16"
        },
        {
          "internalType": "uint256",
          "name": "_attribute",
          "type": "uint256"
        },
        {
          "internalType": "string",
          "name": "_chainName",
          "type": "string"
        }
      ],
      "name": "listToMarketplace",
      "outputs": [],
      "stateMutability": "nonpayable",
      "type": "function"
    },
    {
      "inputs": [
        {
          "internalType": "string",
          "name": "_nftHash",
          "type": "string"
        },
        {
          "internalType": "address",
          "name": "_user",
          "type": "address"
        }
      ],
      "name": "rent",
      "outputs": [],
      "stateMutability": "nonpayable",
      "type": "function"
    },
    {
      "inputs": [],
      "stateMutability": "nonpayable",
      "type": "constructor"
    },
    {
      "anonymous": false,
      "inputs": [
        {
          "indexed": true,
          "internalType": "string",
          "name": "nftHash",
          "type": "string"
        },
        {
          "indexed": false,
          "internalType": "address",
          "name": "owner",
          "type": "address"
        },
        {
          "indexed": false,
          "internalType": "string",
          "name": "chainName",
          "type": "string"
        }
      ],
      "name": "ListToMarketplace",
      "type": "event"
    },
    {
      "anonymous": false,
      "inputs": [
        {
          "indexed": true,
          "internalType": "string",
          "name": "nftHash",
          "type": "string"
        },
        {
          "indexed": false,
          "internalType": "address",
          "name": "lender",
          "type": "address"
        },
        {
          "indexed": false,
          "internalType": "address",
          "name": "renter",
          "type": "address"
        }
      ],
      "name": "Rented",
      "type": "event"
    },
    {
      "anonymous": false,
      "inputs": [
        {
          "indexed": true,
          "internalType": "string",
          "name": "nftHash",
          "type": "string"
        },
        {
          "indexed": false,
          "internalType": "address",
          "name": "renter",
          "type": "address"
        }
      ],
      "name": "Returned",
      "type": "event"
    },
    {
      "inputs": [
        {
          "internalType": "string",
          "name": "_nftHash",
          "type": "string"
        },
        {
          "internalType": "address",
          "name": "_user",
          "type": "address"
        }
      ],
      "name": "returnNft",
      "outputs": [],
      "stateMutability": "nonpayable",
      "type": "function"
    },
    {
      "stateMutability": "payable",
      "type": "fallback"
    },
    {
      "stateMutability": "payable",
      "type": "receive"
    },
    {
      "inputs": [],
      "name": "getMarketplaceNfts",
      "outputs": [
        {
          "components": [
            {
              "internalType": "string",
              "name": "nftHash",
              "type": "string"
            },
            {
              "internalType": "address",
              "name": "nftAddress",
              "type": "address"
            },
            {
              "internalType": "string",
              "name": "nftId",
              "type": "string"
            },
            {
              "internalType": "string",
              "name": "nftName",
              "type": "string"
            },
            {
              "internalType": "string",
              "name": "tokenUri",
              "type": "string"
            },
            {
              "internalType": "address",
              "name": "owner",
              "type": "address"
            },
            {
              "internalType": "uint256",
              "name": "initFlowrate",
              "type": "uint256"
            },
            {
              "internalType": "uint256",
              "name": "typeOfIncrease",
              "type": "uint256"
            },
            {
              "internalType": "uint256",
              "name": "attribute",
              "type": "uint256"
            },
            {
              "internalType": "string",
              "name": "chainName",
              "type": "string"
            },
            {
              "internalType": "bool",
              "name": "isListed",
              "type": "bool"
            },
            {
              "internalType": "bool",
              "name": "isRented",
              "type": "bool"
            }
          ],
          "internalType": "struct NFTRent.NftData[]",
          "name": "",
          "type": "tuple[]"
        }
      ],
      "stateMutability": "view",
      "type": "function"
    },
    {
      "inputs": [
        {
          "internalType": "address",
          "name": "_user",
          "type": "address"
        }
      ],
      "name": "getMyRentedNfts",
      "outputs": [
        {
          "components": [
            {
              "internalType": "string",
              "name": "nftHash",
              "type": "string"
            },
            {
              "internalType": "address",
              "name": "nftAddress",
              "type": "address"
            },
            {
              "internalType": "string",
              "name": "nftId",
              "type": "string"
            },
            {
              "internalType": "string",
              "name": "nftName",
              "type": "string"
            },
            {
              "internalType": "string",
              "name": "tokenUri",
              "type": "string"
            },
            {
              "internalType": "address",
              "name": "owner",
              "type": "address"
            },
            {
              "internalType": "uint256",
              "name": "initFlowrate",
              "type": "uint256"
            },
            {
              "internalType": "uint256",
              "name": "typeOfIncrease",
              "type": "uint256"
            },
            {
              "internalType": "uint256",
              "name": "attribute",
              "type": "uint256"
            },
            {
              "internalType": "string",
              "name": "chainName",
              "type": "string"
            },
            {
              "internalType": "bool",
              "name": "isListed",
              "type": "bool"
            },
            {
              "internalType": "bool",
              "name": "isRented",
              "type": "bool"
            }
          ],
          "internalType": "struct NFTRent.NftData[]",
          "name": "",
          "type": "tuple[]"
        }
      ],
      "stateMutability": "view",
      "type": "function"
    },
    {
      "inputs": [
        {
          "internalType": "string",
          "name": "_nftHash",
          "type": "string"
        }
      ],
      "name": "getNftDetailsByHash",
      "outputs": [
        {
          "components": [
            {
              "internalType": "string",
              "name": "nftHash",
              "type": "string"
            },
            {
              "internalType": "address",
              "name": "nftAddress",
              "type": "address"
            },
            {
              "internalType": "string",
              "name": "nftId",
              "type": "string"
            },
            {
              "internalType": "string",
              "name": "nftName",
              "type": "string"
            },
            {
              "internalType": "string",
              "name": "tokenUri",
              "type": "string"
            },
            {
              "internalType": "address",
              "name": "owner",
              "type": "address"
            },
            {
              "internalType": "uint256",
              "name": "initFlowrate",
              "type": "uint256"
            },
            {
              "internalType": "uint256",
              "name": "typeOfIncrease",
              "type": "uint256"
            },
            {
              "internalType": "uint256",
              "name": "attribute",
              "type": "uint256"
            },
            {
              "internalType": "string",
              "name": "chainName",
              "type": "string"
            },
            {
              "internalType": "bool",
              "name": "isListed",
              "type": "bool"
            },
            {
              "internalType": "bool",
              "name": "isRented",
              "type": "bool"
            }
          ],
          "internalType": "struct NFTRent.NftData",
          "name": "",
          "type": "tuple"
        }
      ],
      "stateMutability": "view",
      "type": "function"
    },
    {
      "inputs": [],
      "name": "getOwner",
      "outputs": [
        {
          "internalType": "address",
          "name": "",
          "type": "address"
        }
      ],
      "stateMutability": "view",
      "type": "function"
    },
    {
      "inputs": [
        {
          "internalType": "address",
          "name": "",
          "type": "address"
        },
        {
          "internalType": "string",
          "name": "",
          "type": "string"
        }
      ],
      "name": "isRented",
      "outputs": [
        {
          "internalType": "bool",
          "name": "",
          "type": "bool"
        }
      ],
      "stateMutability": "view",
      "type": "function"
    },
    {
      "inputs": [
        {
          "internalType": "uint256",
          "name": "",
          "type": "uint256"
        }
      ],
      "name": "marketplaceNfts",
      "outputs": [
        {
          "internalType": "string",
          "name": "nftHash",
          "type": "string"
        },
        {
          "internalType": "address",
          "name": "nftAddress",
          "type": "address"
        },
        {
          "internalType": "string",
          "name": "nftId",
          "type": "string"
        },
        {
          "internalType": "string",
          "name": "nftName",
          "type": "string"
        },
        {
          "internalType": "string",
          "name": "tokenUri",
          "type": "string"
        },
        {
          "internalType": "address",
          "name": "owner",
          "type": "address"
        },
        {
          "internalType": "uint256",
          "name": "initFlowrate",
          "type": "uint256"
        },
        {
          "internalType": "uint256",
          "name": "typeOfIncrease",
          "type": "uint256"
        },
        {
          "internalType": "uint256",
          "name": "attribute",
          "type": "uint256"
        },
        {
          "internalType": "string",
          "name": "chainName",
          "type": "string"
        },
        {
          "internalType": "bool",
          "name": "isListed",
          "type": "bool"
        },
        {
          "internalType": "bool",
          "name": "isRented",
          "type": "bool"
        }
      ],
      "stateMutability": "view",
      "type": "function"
    },
    {
      "inputs": [
        {
          "internalType": "string",
          "name": "",
          "type": "string"
        },
        {
          "internalType": "uint256",
          "name": "",
          "type": "uint256"
        }
      ],
      "name": "myNfts",
      "outputs": [
        {
          "internalType": "string",
          "name": "nftHash",
          "type": "string"
        },
        {
          "internalType": "address",
          "name": "nftAddress",
          "type": "address"
        },
        {
          "internalType": "string",
          "name": "nftId",
          "type": "string"
        },
        {
          "internalType": "string",
          "name": "nftName",
          "type": "string"
        },
        {
          "internalType": "string",
          "name": "tokenUri",
          "type": "string"
        },
        {
          "internalType": "address",
          "name": "owner",
          "type": "address"
        },
        {
          "internalType": "uint256",
          "name": "initFlowrate",
          "type": "uint256"
        },
        {
          "internalType": "uint256",
          "name": "typeOfIncrease",
          "type": "uint256"
        },
        {
          "internalType": "uint256",
          "name": "attribute",
          "type": "uint256"
        },
        {
          "internalType": "string",
          "name": "chainName",
          "type": "string"
        },
        {
          "internalType": "bool",
          "name": "isListed",
          "type": "bool"
        },
        {
          "internalType": "bool",
          "name": "isRented",
          "type": "bool"
        }
      ],
      "stateMutability": "view",
      "type": "function"
    },
    {
      "inputs": [
        {
          "internalType": "address",
          "name": "",
          "type": "address"
        },
        {
          "internalType": "uint256",
          "name": "",
          "type": "uint256"
        }
      ],
      "name": "myRentedNfts",
      "outputs": [
        {
          "internalType": "string",
          "name": "nftHash",
          "type": "string"
        },
        {
          "internalType": "address",
          "name": "nftAddress",
          "type": "address"
        },
        {
          "internalType": "string",
          "name": "nftId",
          "type": "string"
        },
        {
          "internalType": "string",
          "name": "nftName",
          "type": "string"
        },
        {
          "internalType": "string",
          "name": "tokenUri",
          "type": "string"
        },
        {
          "internalType": "address",
          "name": "owner",
          "type": "address"
        },
        {
          "internalType": "uint256",
          "name": "initFlowrate",
          "type": "uint256"
        },
        {
          "internalType": "uint256",
          "name": "typeOfIncrease",
          "type": "uint256"
        },
        {
          "internalType": "uint256",
          "name": "attribute",
          "type": "uint256"
        },
        {
          "internalType": "string",
          "name": "chainName",
          "type": "string"
        },
        {
          "internalType": "bool",
          "name": "isListed",
          "type": "bool"
        },
        {
          "internalType": "bool",
          "name": "isRented",
          "type": "bool"
        }
      ],
      "stateMutability": "view",
      "type": "function"
    },
    {
      "inputs": [
        {
          "internalType": "string",
          "name": "",
          "type": "string"
        }
      ],
      "name": "nftDetails",
      "outputs": [
        {
          "internalType": "string",
          "name": "nftHash",
          "type": "string"
        },
        {
          "internalType": "address",
          "name": "nftAddress",
          "type": "address"
        },
        {
          "internalType": "string",
          "name": "nftId",
          "type": "string"
        },
        {
          "internalType": "string",
          "name": "nftName",
          "type": "string"
        },
        {
          "internalType": "string",
          "name": "tokenUri",
          "type": "string"
        },
        {
          "internalType": "address",
          "name": "owner",
          "type": "address"
        },
        {
          "internalType": "uint256",
          "name": "initFlowrate",
          "type": "uint256"
        },
        {
          "internalType": "uint256",
          "name": "typeOfIncrease",
          "type": "uint256"
        },
        {
          "internalType": "uint256",
          "name": "attribute",
          "type": "uint256"
        },
        {
          "internalType": "string",
          "name": "chainName",
          "type": "string"
        },
        {
          "internalType": "bool",
          "name": "isListed",
          "type": "bool"
        },
        {
          "internalType": "bool",
          "name": "isRented",
          "type": "bool"
        }
      ],
      "stateMutability": "view",
      "type": "function"
    },
    {
      "inputs": [
        {
          "internalType": "string",
          "name": "_nftHash",
          "type": "string"
        },
        {
          "internalType": "address",
          "name": "_user",
          "type": "address"
        }
      ],
      "name": "verify",
      "outputs": [
        {
          "internalType": "bool",
          "name": "",
          "type": "bool"
        }
      ],
      "stateMutability": "view",
      "type": "function"
    }
  ],
  "bytecode": "0x608060405234801561001057600080fd5b50336000806101000a81548173ffffffffffffffffffffffffffffffffffffffff021916908373ffffffffffffffffffffffffffffffffffffffff16021790555061291b806100606000396000f3fe608060405234801561001057600080fd5b50600436106100cf5760003560e01c80637588b0541161008c578063d34fb28b11610066578063d34fb28b1461024a578063d435119d1461027a578063e80b6909146102aa578063fa4d6eaa146102da576100cf565b80637588b054146101f2578063893d20e814610210578063a9cd840b1461022e576100cf565b80630a389bda146100d45780631ac0f3a51461010457806328867cad1461013d57806335f543431461015957806337245c9414610189578063684024fb146101c2575b600080fd5b6100ee60048036038101906100e99190611e02565b6102f6565b6040516100fb9190611e79565b60405180910390f35b61011e60048036038101906101199190611eca565b61033b565b6040516101349a99989796959493929190611fcc565b60405180910390f35b61015760048036038101906101529190612092565b610732565b005b610173600480360381019061016e9190612204565b61096b565b6040516101809190611e79565b60405180910390f35b6101a3600480360381019061019e9190612204565b6109a1565b6040516101b99a99989796959493929190611fcc565b60405180910390f35b6101dc60048036038101906101d7919061224d565b610d7b565b6040516101e99190611e79565b60405180910390f35b6101fa610dee565b60405161020791906124d0565b60405180910390f35b61021861127a565b60405161022591906124f2565b60405180910390f35b61024860048036038101906102439190611e02565b6112a3565b005b610264600480360381019061025f9190612204565b6113ca565b604051610271919061260a565b60405180910390f35b610294600480360381019061028f919061262c565b61182f565b6040516102a1919061266c565b60405180910390f35b6102c460048036038101906102bf919061268e565b6118e8565b6040516102d1919061277d565b60405180910390f35b6102f460048036038101906102ef919061224d565b611a00565b005b6002602052816000526040600020818051602081018201805184825260208301602085012081835280955050505050506000915091509054906101000a900460ff1681565b600382805160208101820180518482526020830160208501208183528095505050505050818154811061036d57600080fd5b90600052602060002090600a020160009150915050806000018054610391906127ce565b80601f01602080910402602001604051908101604052809291908181526020018280546103bd906127ce565b801561040a5780601f106103df5761010080835404028352916020019161040a565b820191906000526020600020905b8154815290600101906020018083116103ed57829003601f168201915b5050505050908060010160009054906101000a900473ffffffffffffffffffffffffffffffffffffffff1690806002018054610445906127ce565b80601f0160208091040260200160405190810160405280929190818152602001828054610471906127ce565b80156104be5780601f10610493576101008083540402835291602001916104be565b820191906000526020600020905b8154815290600101906020018083116104a157829003601f168201915b5050505050908060030180546104d3906127ce565b80601f01602080910402602001604051908101604052809291908181526020018280546104ff906127ce565b801561054c5780601f106105215761010080835404028352916020019161054c565b820191906000526020600020905b81548152906001019060200180831161052f57829003601f168201915b505050505090806004018054610561906127ce565b80601f016020809104026020016040519081016040528092919081815260200182805461058d906127ce565b80156105da5780601f106105af576101008083540402835291602001916105da565b820191906000526020600020905b8154815290600101906020018083116105bd57829003601f168201915b5050505050908060050180546105ef906127ce565b80601f016020809104026020016040519081016040528092919081815260200182805461061b906127ce565b80156106685780601f1061063d57610100808354040283529160200191610668565b820191906000526020600020905b81548152906001019060200180831161064b57829003601f168201915b50505050509080600601805461067d906127ce565b80601f01602080910402602001604051908101604052809291908181526020018280546106a9906127ce565b80156106f65780601f106106cb576101008083540402835291602001916106f6565b820191906000526020600020905b8154815290600101906020018083116106d957829003601f168201915b5050505050908060070160009054906101000a900473ffffffffffffffffffffffffffffffffffffffff1690806008015490806009015490508a565b60006040518061014001604052808b81526020018a73ffffffffffffffffffffffffffffffffffffffff1681526020018981526020018881526020018781526020018681526020018581526020013373ffffffffffffffffffffffffffffffffffffffff16815260200184815260200183815250905060018190806001815401808255809150506001900390600052602060002090600a020160009091909190915060008201518160000190805190602001906107f0929190611b28565b5060208201518160010160006101000a81548173ffffffffffffffffffffffffffffffffffffffff021916908373ffffffffffffffffffffffffffffffffffffffff1602179055506040820151816002019080519060200190610854929190611b28565b506060820151816003019080519060200190610871929190611b28565b50608082015181600401908051906020019061088e929190611b28565b5060a08201518160050190805190602001906108ab929190611b28565b5060c08201518160060190805190602001906108c8929190611b28565b5060e08201518160070160006101000a81548173ffffffffffffffffffffffffffffffffffffffff021916908373ffffffffffffffffffffffffffffffffffffffff160217905550610100820151816008015561012082015181600901555050600160048b60405161093a919061283c565b908152602001604051809103902060006101000a81548160ff02191690831515021790555050505050505050505050565b6004818051602081018201805184825260208301602085012081835280955050505050506000915054906101000a900460ff1681565b6006818051602081018201805184825260208301602085012081835280955050505050506000915090508060000180546109da906127ce565b80601f0160208091040260200160405190810160405280929190818152602001828054610a06906127ce565b8015610a535780601f10610a2857610100808354040283529160200191610a53565b820191906000526020600020905b815481529060010190602001808311610a3657829003601f168201915b5050505050908060010160009054906101000a900473ffffffffffffffffffffffffffffffffffffffff1690806002018054610a8e906127ce565b80601f0160208091040260200160405190810160405280929190818152602001828054610aba906127ce565b8015610b075780601f10610adc57610100808354040283529160200191610b07565b820191906000526020600020905b815481529060010190602001808311610aea57829003601f168201915b505050505090806003018054610b1c906127ce565b80601f0160208091040260200160405190810160405280929190818152602001828054610b48906127ce565b8015610b955780601f10610b6a57610100808354040283529160200191610b95565b820191906000526020600020905b815481529060010190602001808311610b7857829003601f168201915b505050505090806004018054610baa906127ce565b80601f0160208091040260200160405190810160405280929190818152602001828054610bd6906127ce565b8015610c235780601f10610bf857610100808354040283529160200191610c23565b820191906000526020600020905b815481529060010190602001808311610c0657829003601f168201915b505050505090806005018054610c38906127ce565b80601f0160208091040260200160405190810160405280929190818152602001828054610c64906127ce565b8015610cb15780601f10610c8657610100808354040283529160200191610cb1565b820191906000526020600020905b815481529060010190602001808311610c9457829003601f168201915b505050505090806006018054610cc6906127ce565b80601f0160208091040260200160405190810160405280929190818152602001828054610cf2906127ce565b8015610d3f5780601f10610d1457610100808354040283529160200191610d3f565b820191906000526020600020905b815481529060010190602001808311610d2257829003601f168201915b5050505050908060070160009054906101000a900473ffffffffffffffffffffffffffffffffffffffff1690806008015490806009015490508a565b6000600260008373ffffffffffffffffffffffffffffffffffffffff1673ffffffffffffffffffffffffffffffffffffffff16815260200190815260200160002083604051610dca919061283c565b908152602001604051809103902060009054906101000a900460ff16905092915050565b60606001805480602002602001604051908101604052809291908181526020016000905b8282101561127157838290600052602060002090600a020160405180610140016040529081600082018054610e46906127ce565b80601f0160208091040260200160405190810160405280929190818152602001828054610e72906127ce565b8015610ebf5780601f10610e9457610100808354040283529160200191610ebf565b820191906000526020600020905b815481529060010190602001808311610ea257829003601f168201915b505050505081526020016001820160009054906101000a900473ffffffffffffffffffffffffffffffffffffffff1673ffffffffffffffffffffffffffffffffffffffff1673ffffffffffffffffffffffffffffffffffffffff168152602001600282018054610f2e906127ce565b80601f0160208091040260200160405190810160405280929190818152602001828054610f5a906127ce565b8015610fa75780601f10610f7c57610100808354040283529160200191610fa7565b820191906000526020600020905b815481529060010190602001808311610f8a57829003601f168201915b50505050508152602001600382018054610fc0906127ce565b80601f0160208091040260200160405190810160405280929190818152602001828054610fec906127ce565b80156110395780601f1061100e57610100808354040283529160200191611039565b820191906000526020600020905b81548152906001019060200180831161101c57829003601f168201915b50505050508152602001600482018054611052906127ce565b80601f016020809104026020016040519081016040528092919081815260200182805461107e906127ce565b80156110cb5780601f106110a0576101008083540402835291602001916110cb565b820191906000526020600020905b8154815290600101906020018083116110ae57829003601f168201915b505050505081526020016005820180546110e4906127ce565b80601f0160208091040260200160405190810160405280929190818152602001828054611110906127ce565b801561115d5780601f106111325761010080835404028352916020019161115d565b820191906000526020600020905b81548152906001019060200180831161114057829003601f168201915b50505050508152602001600682018054611176906127ce565b80601f01602080910402602001604051908101604052809291908181526020018280546111a2906127ce565b80156111ef5780601f106111c4576101008083540402835291602001916111ef565b820191906000526020600020905b8154815290600101906020018083116111d257829003601f168201915b505050505081526020016007820160009054906101000a900473ffffffffffffffffffffffffffffffffffffffff1673ffffffffffffffffffffffffffffffffffffffff1673ffffffffffffffffffffffffffffffffffffffff1681526020016008820154815260200160098201548152505081526020019060010190610e12565b50505050905090565b60008060009054906101000a900473ffffffffffffffffffffffffffffffffffffffff16905090565b3373ffffffffffffffffffffffffffffffffffffffff166006826040516112ca919061283c565b908152602001604051809103902060070160009054906101000a900473ffffffffffffffffffffffffffffffffffffffff1673ffffffffffffffffffffffffffffffffffffffff1614611352576040517f08c379a0000000000000000000000000000000000000000000000000000000008152600401611349906128c5565b60405180910390fd5b6000600260008473ffffffffffffffffffffffffffffffffffffffff1673ffffffffffffffffffffffffffffffffffffffff168152602001908152602001600020826040516113a1919061283c565b908152602001604051809103902060006101000a81548160ff0219169083151502179055505050565b6113d2611bae565b6006826040516113e2919061283c565b90815260200160405180910390206040518061014001604052908160008201805461140c906127ce565b80601f0160208091040260200160405190810160405280929190818152602001828054611438906127ce565b80156114855780601f1061145a57610100808354040283529160200191611485565b820191906000526020600020905b81548152906001019060200180831161146857829003601f168201915b505050505081526020016001820160009054906101000a900473ffffffffffffffffffffffffffffffffffffffff1673ffffffffffffffffffffffffffffffffffffffff1673ffffffffffffffffffffffffffffffffffffffff1681526020016002820180546114f4906127ce565b80601f0160208091040260200160405190810160405280929190818152602001828054611520906127ce565b801561156d5780601f106115425761010080835404028352916020019161156d565b820191906000526020600020905b81548152906001019060200180831161155057829003601f168201915b50505050508152602001600382018054611586906127ce565b80601f01602080910402602001604051908101604052809291908181526020018280546115b2906127ce565b80156115ff5780601f106115d4576101008083540402835291602001916115ff565b820191906000526020600020905b8154815290600101906020018083116115e257829003601f168201915b50505050508152602001600482018054611618906127ce565b80601f0160208091040260200160405190810160405280929190818152602001828054611644906127ce565b80156116915780601f1061166657610100808354040283529160200191611691565b820191906000526020600020905b81548152906001019060200180831161167457829003601f168201915b505050505081526020016005820180546116aa906127ce565b80601f01602080910402602001604051908101604052809291908181526020018280546116d6906127ce565b80156117235780601f106116f857610100808354040283529160200191611723565b820191906000526020600020905b81548152906001019060200180831161170657829003601f168201915b5050505050815260200160068201805461173c906127ce565b80601f0160208091040260200160405190810160405280929190818152602001828054611768906127ce565b80156117b55780601f1061178a576101008083540402835291602001916117b5565b820191906000526020600020905b81548152906001019060200180831161179857829003601f168201915b505050505081526020016007820160009054906101000a900473ffffffffffffffffffffffffffffffffffffffff1673ffffffffffffffffffffffffffffffffffffffff1673ffffffffffffffffffffffffffffffffffffffff168152602001600882015481526020016009820154815250509050919050565b6005602052816000526040600020818154811061184b57600080fd5b90600052602060002001600091509150508054611867906127ce565b80601f0160208091040260200160405190810160405280929190818152602001828054611893906127ce565b80156118e05780601f106118b5576101008083540402835291602001916118e0565b820191906000526020600020905b8154815290600101906020018083116118c357829003601f168201915b505050505081565b6060600560008373ffffffffffffffffffffffffffffffffffffffff1673ffffffffffffffffffffffffffffffffffffffff168152602001908152602001600020805480602002602001604051908101604052809291908181526020016000905b828210156119f5578382906000526020600020018054611968906127ce565b80601f0160208091040260200160405190810160405280929190818152602001828054611994906127ce565b80156119e15780601f106119b6576101008083540402835291602001916119e1565b820191906000526020600020905b8154815290600101906020018083116119c457829003601f168201915b505050505081526020019060010190611949565b505050509050919050565b600560008273ffffffffffffffffffffffffffffffffffffffff1673ffffffffffffffffffffffffffffffffffffffff16815260200190815260200160002082908060018154018082558091505060019003906000526020600020016000909190919091509080519060200190611a78929190611b28565b506001600260008373ffffffffffffffffffffffffffffffffffffffff1673ffffffffffffffffffffffffffffffffffffffff16815260200190815260200160002083604051611ac8919061283c565b908152602001604051809103902060006101000a81548160ff0219169083151502179055506000600483604051611aff919061283c565b908152602001604051809103902060006101000a81548160ff0219169083151502179055505050565b828054611b34906127ce565b90600052602060002090601f016020900481019282611b565760008555611b9d565b82601f10611b6f57805160ff1916838001178555611b9d565b82800160010185558215611b9d579182015b82811115611b9c578251825591602001919060010190611b81565b5b509050611baa9190611c2d565b5090565b60405180610140016040528060608152602001600073ffffffffffffffffffffffffffffffffffffffff1681526020016060815260200160608152602001606081526020016060815260200160608152602001600073ffffffffffffffffffffffffffffffffffffffff16815260200160008152602001600081525090565b5b80821115611c46576000816000905550600101611c2e565b5090565b6000604051905090565b600080fd5b600080fd5b600073ffffffffffffffffffffffffffffffffffffffff82169050919050565b6000611c8982611c5e565b9050919050565b611c9981611c7e565b8114611ca457600080fd5b50565b600081359050611cb681611c90565b92915050565b600080fd5b600080fd5b6000601f19601f8301169050919050565b7f4e487b7100000000000000000000000000000000000000000000000000000000600052604160045260246000fd5b611d0f82611cc6565b810181811067ffffffffffffffff82111715611d2e57611d2d611cd7565b5b80604052505050565b6000611d41611c4a565b9050611d4d8282611d06565b919050565b600067ffffffffffffffff821115611d6d57611d6c611cd7565b5b611d7682611cc6565b9050602081019050919050565b82818337600083830152505050565b6000611da5611da084611d52565b611d37565b905082815260208101848484011115611dc157611dc0611cc1565b5b611dcc848285611d83565b509392505050565b600082601f830112611de957611de8611cbc565b5b8135611df9848260208601611d92565b91505092915050565b60008060408385031215611e1957611e18611c54565b5b6000611e2785828601611ca7565b925050602083013567ffffffffffffffff811115611e4857611e47611c59565b5b611e5485828601611dd4565b9150509250929050565b60008115159050919050565b611e7381611e5e565b82525050565b6000602082019050611e8e6000830184611e6a565b92915050565b6000819050919050565b611ea781611e94565b8114611eb257600080fd5b50565b600081359050611ec481611e9e565b92915050565b60008060408385031215611ee157611ee0611c54565b5b600083013567ffffffffffffffff811115611eff57611efe611c59565b5b611f0b85828601611dd4565b9250506020611f1c85828601611eb5565b9150509250929050565b600081519050919050565b600082825260208201905092915050565b60005b83811015611f60578082015181840152602081019050611f45565b83811115611f6f576000848401525b50505050565b6000611f8082611f26565b611f8a8185611f31565b9350611f9a818560208601611f42565b611fa381611cc6565b840191505092915050565b611fb781611c7e565b82525050565b611fc681611e94565b82525050565b6000610140820190508181036000830152611fe7818d611f75565b9050611ff6602083018c611fae565b8181036040830152612008818b611f75565b9050818103606083015261201c818a611f75565b905081810360808301526120308189611f75565b905081810360a08301526120448188611f75565b905081810360c08301526120588187611f75565b905061206760e0830186611fae565b612075610100830185611fbd565b612083610120830184611fbd565b9b9a5050505050505050505050565b60008060008060008060008060006101208a8c0312156120b5576120b4611c54565b5b60008a013567ffffffffffffffff8111156120d3576120d2611c59565b5b6120df8c828d01611dd4565b99505060206120f08c828d01611ca7565b98505060408a013567ffffffffffffffff81111561211157612110611c59565b5b61211d8c828d01611dd4565b97505060608a013567ffffffffffffffff81111561213e5761213d611c59565b5b61214a8c828d01611dd4565b96505060808a013567ffffffffffffffff81111561216b5761216a611c59565b5b6121778c828d01611dd4565b95505060a08a013567ffffffffffffffff81111561219857612197611c59565b5b6121a48c828d01611dd4565b94505060c08a013567ffffffffffffffff8111156121c5576121c4611c59565b5b6121d18c828d01611dd4565b93505060e06121e28c828d01611eb5565b9250506101006121f48c828d01611eb5565b9150509295985092959850929598565b60006020828403121561221a57612219611c54565b5b600082013567ffffffffffffffff81111561223857612237611c59565b5b61224484828501611dd4565b91505092915050565b6000806040838503121561226457612263611c54565b5b600083013567ffffffffffffffff81111561228257612281611c59565b5b61228e85828601611dd4565b925050602061229f85828601611ca7565b9150509250929050565b600081519050919050565b600082825260208201905092915050565b6000819050602082019050919050565b600082825260208201905092915050565b60006122f182611f26565b6122fb81856122d5565b935061230b818560208601611f42565b61231481611cc6565b840191505092915050565b61232881611c7e565b82525050565b61233781611e94565b82525050565b600061014083016000830151848203600086015261235b82826122e6565b9150506020830151612370602086018261231f565b506040830151848203604086015261238882826122e6565b915050606083015184820360608601526123a282826122e6565b915050608083015184820360808601526123bc82826122e6565b91505060a083015184820360a08601526123d682826122e6565b91505060c083015184820360c08601526123f082826122e6565b91505060e083015161240560e086018261231f565b5061010083015161241a61010086018261232e565b5061012083015161242f61012086018261232e565b508091505092915050565b6000612446838361233d565b905092915050565b6000602082019050919050565b6000612466826122a9565b61247081856122b4565b935083602082028501612482856122c5565b8060005b858110156124be578484038952815161249f858261243a565b94506124aa8361244e565b925060208a01995050600181019050612486565b50829750879550505050505092915050565b600060208201905081810360008301526124ea818461245b565b905092915050565b60006020820190506125076000830184611fae565b92915050565b600061014083016000830151848203600086015261252b82826122e6565b9150506020830151612540602086018261231f565b506040830151848203604086015261255882826122e6565b9150506060830151848203606086015261257282826122e6565b9150506080830151848203608086015261258c82826122e6565b91505060a083015184820360a08601526125a682826122e6565b91505060c083015184820360c08601526125c082826122e6565b91505060e08301516125d560e086018261231f565b506101008301516125ea61010086018261232e565b506101208301516125ff61012086018261232e565b508091505092915050565b60006020820190508181036000830152612624818461250d565b905092915050565b6000806040838503121561264357612642611c54565b5b600061265185828601611ca7565b925050602061266285828601611eb5565b9150509250929050565b600060208201905081810360008301526126868184611f75565b905092915050565b6000602082840312156126a4576126a3611c54565b5b60006126b284828501611ca7565b91505092915050565b600081519050919050565b600082825260208201905092915050565b6000819050602082019050919050565b60006126f383836122e6565b905092915050565b6000602082019050919050565b6000612713826126bb565b61271d81856126c6565b93508360208202850161272f856126d7565b8060005b8581101561276b578484038952815161274c85826126e7565b9450612757836126fb565b925060208a01995050600181019050612733565b50829750879550505050505092915050565b600060208201905081810360008301526127978184612708565b905092915050565b7f4e487b7100000000000000000000000000000000000000000000000000000000600052602260045260246000fd5b600060028204905060018216806127e657607f821691505b602082108114156127fa576127f961279f565b5b50919050565b600081905092915050565b600061281682611f26565b6128208185612800565b9350612830818560208601611f42565b80840191505092915050565b6000612848828461280b565b915081905092915050565b7f4f6e6c7920746865206f776e6572206f6620746865204e46542063616e20657860008201527f656375746520746869732066756e6374696f6e00000000000000000000000000602082015250565b60006128af603383611f31565b91506128ba82612853565b604082019050919050565b600060208201905081810360008301526128de816128a2565b905091905056fea2646970667358221220dda37ffd2b66d2b5543c61c9d0af6c5104275a97ea27386e2392f09351acb79064736f6c634300080a0033",
  "linkReferences": {},
  "deployedLinkReferences": {}
}